:020000040800F2
:1000000000800020A55B0008ED5B0008ED5B0008A8
:10001000ED5B0008ED5B0008ED5B000800000000F0
:10002000000000000000000000000000ED5B000880
:10003000ED5B000800000000ED5B0008E101000836
:10004000ED5B0008ED5B0008ED5B0008ED5B000870
:10005000ED5B0008ED5B0008ED5B0008ED5B000860
:10006000ED5B0008ED5B0008ED5B0008ED5B000850
:10007000ED5B0008ED5B0008ED5B0008ED5B000840
:10008000ED5B0008ED5B0008ED5B0008ED5B000830
:10009000F1010008ED5B0008ED5B0008ED5B000876
:1000A00000000000ED5B0008ED5B0008ED5B000860
:1000B000ED5B0008ED5B0008ED5B0008ED5B000800
:1000C000ED5B0008ED5B0008ED5B0008ED5B0008F0
:1000D000ED5B0008ED5B0008ED5B0008ED5B0008E0
:1000E000ED5B0008ED5B0008ED5B0008ED5B0008D0
:1000F000ED5B000800000000ED5B0008ED5B000810
:100100000000000000000000ED5B0008ED5B00084F
:10011000ED5B0008ED5B0008ED5B000800000000EF
:10012000ED5B00080000000000000000000000007F
:1001300000000000000000005FF808F1044B0548D3
:100140001B1A062B02D9044B03B11847704700BF96
:10015000FF010020FC0100200000000005490648C6
:10016000091A891001EBD171491002D0034B03B178
:1001700018477047FC010020FC010020000000002F
:1001800010B5064C237843B9FFF7D8FF044B13B1E1
:100190000448AFF300800123237010BDFC01002050
:1001A0000000000098D9000808B5084B1BB10849A9
:1001B0000848AFF300800848036813B9BDE8084059
:1001C000CCE7064B002BF9D09847F7E7000000007A
:1001D0000002002098D90008F8010020000000006B
:1001E00008B503F015F9BDE8084003F034BB000082
:1001F000014804F096B800BF4811002000F5F671E0
:10020000D0F81C0200F088B81C2303FB0103D0F8CF
:100210001C02D3F8182100F0ACB81C2303FB010327
:10022000D0F81C029A6B00F0D5B8D0F81C0200F090
:1002300050B910B504460121D0F81C0200F037F97E
:10024000D4F81C02BDE8104000F012B910B5044605
:10025000D0F81C0200F02EF9A36923B1024A1369F9
:1002600043F00603136110BD00ED00E0D0F81C025E
:1002700000F029B910B51C46D0F8200213462246DA
:1002800003F084FD002010BD08B5D0F8200204F072
:100290009FFA002008BD08B5D0F8200204F0E9FA62
:1002A000002008BD11F0800FD0F8202218BF01F007
:1002B0007F034FF01C0015BF00FB032100FB012151
:1002C00091F82A0091F80A01704708B5D0F8200289
:1002D00003F046FD002008BD08B5D0F8200203F069
:1002E00065FF002008BD08B5D0F8200203F0E2FE4B
:1002F000002008BD08B5D0F814320BB9022008BDA3
:100300001B6898470028F9D108BD08B5D0F8143209
:100310005B689847002008BD38B5044600F50275B3
:10032000284600F0E2F80123C4F8F43194F80812EA
:10033000B4F80E32C4F8F83101F01F03012B0CD0D1
:1003400006D3022B0ED12946204600F00FFA0EE00C
:100350002946204600F0E8F809E02946204600F04A
:10036000EDF904E001F080012046FFF78DFF002049
:1003700038BD38B50446154609BBD0F8F431032B17
:1003800026D1D0F80C11D0F8102191420AD98B1A3D
:100390009A4228BF1A46C0F80C3192B2294600F0A2
:1003A0005DFA15E0D0F814321B6923B190F8FC21F6
:1003B000032A00D19847204600F058FA08E0D0F808
:1003C00014329B6923B190F8FC21032A00D198478D
:1003D000002038BD70B5134604460E4600293CD1B6
:1003E000D0F8F421022A30D1C569026A954207D9B2
:1003F000AA1AC261194692B200F028FA334611E0F7
:100400008369B3FBF2F502FB15358DB99A420FD81B
:10041000D0F8F82193420BD22A4600F017FA2B4667
:10042000C4F8F8511A4619462046FFF75CFF0CE065
:10043000D4F81432DB682BB194F8FC21032A01D1E3
:1004400020469847204600F01CFA94F80032012B11
:100450000CD1002384F8003208E0D0F814325B6934
:1004600023B190F8FC21032A00D19847002070BDE9
:1004700038B504460022114640254023FFF7FAFE16
:100480002B46C4F81051002280212046FFF7F2FECF
:10049000012384F8FC31D4F8183225622BB1D4F84A
:1004A000143221795B6820469847002038BD0174DA
:1004B0000020704790F8FC3180F8FD31042380F86B
:1004C000FC310020704790F8FD3180F8FC310020AD
:1004D000704708B590F8FC21032A04D1D0F81432F3
:1004E000DB6903B19847002008BD0B7803704B7897
:1004F0004370CA788B7803EB022343804A790B79E7
:1005000003EB02238380CA798B7903EB0223C38038
:10051000704710B504468021FFF7B6FE2046BDE8BF
:1005200010400021FFF7B0BE73B54B7804460D466E
:10053000092B00F2F980DFE813F0CB00E200F700AE
:10054000DE00F70075000A00F700BB0091004B8841
:100550001A0A013A062A00F2E780DFE812F00700E3
:100560000B001700E500E5003C004700D0F8103212
:100570001B6817E0027CD0F814320AB99B6A00E0CD
:10058000DB6A0DF10600984702233AE0DBB2052B47
:1005900000F2CA80DFE803F0030B0F13171BD0F83B
:1005A00010325B680DF10601207C98472AE0D0F8F4
:1005B00010329B68F6E7D0F81032DB68F2E7D0F82B
:1005C00010321B69EEE7D0F810325B69EAE7D0F829
:1005D00010329B69E6E7037C002B40F0A580D0F841
:1005E00014320DF106005B6B98470BE0037C002B87
:1005F00040F09A80D0F814320DF106001B6B98473A
:1006000007234370BDF80620002A00F09180EB8894
:10061000002B00F08D809A4228BF1A460146ADF8A3
:10062000062064E08B88002B7ED1CB88002B7BD109
:1006300090F8FC318E78032B06F07F0674D080F89A
:10064000FE613146FFF741FE204600F00FF90EB182
:10065000022300E0012384F8FC3169E08978364EFA
:100660000129317060D890F8FC31022B02D0032BA5
:1006700008D059E0002953D001210323416080F8BC
:10068000FC310FE031B9022380F8FC314160FFF703
:100690003CFE45E04168012942D0C9B2FFF735FE72
:1006A000317861602046FFF725FE022838D13BE013
:1006B000CA88012A38D190F8FC31022B03D0032BD1
:1006C00032D1011D13E00146002341F8083F0EE03E
:1006D00090F8FC31023B012B26D80123C360D0F8EF
:1006E00004320BB10323C360022204F10C01204643
:1006F00000F09FF81CE04B88012B19D108E090F81E
:10070000FC31023B012B0FD84B88012B10D1002369
:10071000C4F80432D4F8143229469B68204698471E
:10072000204600F0A3F803E029462046FFF7F1FE3B
:10073000002002B070BD00BF1802002038B590F84C
:10074000FC310446032B0D460CD10B79012B09D843
:10075000D0F814329B689847EB882BB9204600F0FC
:1007600085F801E0FFF7D5FE002038BD70B50A78A6
:100770008E8802F06002202A04460D46F3B204D1AE
:10078000D0F814329B68984751E04A78012A10D07B
:1007900026D3032A4BD190F8FC21022A27D0032A22
:1007A00043D14A8892B95E0610D01946FFF76CFD16
:1007B0000CE090F8FC21022A19D0032A35D14A888E
:1007C000AABB590608D01946FFF765FDD4F81432C4
:1007D00029469B6820469847204600F047F826E0C7
:1007E00090F8FC21022A02D0032A06D01DE05A0606
:1007F0001DD01946FFF748FD19E003F07F0516F0FC
:10080000800F00EB0515194614BF143505F58275E8
:10081000FFF748FD10B101232B6000E028600222A1
:100820002946204600F005F801E0FFF772FE00209F
:1008300070BD134610B50222C0F8F42183610A4648
:10084000C3610021FFF748FD002010BD08B5134625
:100850000A460021FFF740FD002008BD08B51346F9
:100860000A460021FFF73FFD002008BD08B504231C
:10087000C0F8F43100231A461946FFF72DFD002079
:1008800008BD08B50523C0F8F43100231A461946FF
:10089000FFF729FD002008BD0120704708B509F0C9
:1008A00027FB162303604FF0FF3008BD90F8C90006
:1008B000704780F8C910704790F8680170470000D1
:1008C00070B50446C0F86C11084608F0FFFC10A390
:1008D000D3E9002308F09AFE09F030F805462368B2
:1008E000C0F307421B6D2046062198472368C5F3D5
:1008F000072220461B6D072198472368EAB220464D
:10090000BDE870401B6D0821184700BFAFF30080A1
:100910000000000080844E402DE9F04F044689B06D
:100920009DF85830049101939DF85C30164602936F
:100930009DF86030129F03939DF86430139D0593DA
:100940009DF868309DF850B006931B9BBDF854A0ED
:10095000079303685B699847236809215B6D20460C
:100960009847236880465B6D4D2120469847226852
:10097000D4F86C11D2F8842081462046904708F0C4
:100980007F0848EA0000C2B242F07002110622D588
:10099000112ECBBF49F0070309F0F8035FFA83F982
:1009A00043F0040909F00701072922F00F0208D1DA
:1009B000042E03DD142EA8BF142600E00526711FA7
:1009C00007E0012E03DD112EA8BF112600E002264C
:1009D000B11E0A430AE0731C03DB0E2EA8BF0E26CD
:1009E00001E04FF0FF36721C42F070022168D2B273
:1009F0000B6D20460921984722684D21D2F850807E
:100A000020464A46C047049B012B40F0CC80092F6A
:100A100084F8A06100D9FEE79DF804300C2D84F81D
:100A2000B0319DF80830C4F8A47184F8B2319DF853
:100A30000C30C4F8A85184F8B3319DF8143084F810
:100A4000ADB184F8B4319DF81830A4F8AEA184F8A3
:100A5000B531079BC4F8B83117D8052D08D9082F30
:100A600002D10C2D24D120E0072F06D10A2D07E05A
:100A7000082F1CD0072F1AD00625062F02D1092DCA
:100A800013D815E0052F08D1F9E7FB1F012B0BD96F
:100A9000062F09D0052F07D00C25042F01D1082DD2
:100AA000EEE7032F04D800E00C25012301E0062522
:100AB000002384F8AC31039B93B1236844211E6D5D
:100AC00020465B6D984760F07F02D2B244212046F9
:100AD000B047236894F8B4211B6D24212046984721
:100AE00023681D211E6D20465B6D9847019B1D21CB
:100AF00043EA4B0242EA0712D2B22046B0472368CB
:100B00001E211E6D20465B6D9847029B00F00B0076
:100B10009A0042EA05120243D2B21E212046B04793
:100B2000236826211E6D20465B6D984794F8AC2102
:100B300020F0080040EAC202D2B226212046B04787
:100B400023684FEA1A221B6D20212046984723680C
:100B500021211B6D20465FFA8AF298472368062DF3
:100B60004FF031011D6D20465B6D0BD1984700F0B1
:100B7000F80242F0050231212046A84723680C22E2
:100B80001B6D0AE0984700F0F80242F003023121A1
:100B90002046A84723680A221B6D2046372109B04A
:100BA000BDE8F04F184709B0BDE8F08F90F8693103
:100BB00070B58B4204460D464AD00368012984F87B
:100BC0006911D3F888304FF0000115D09847236899
:100BD00001211D6D20465B6D9847012100F07F02C9
:100BE0002046A847236800221B6D402120469847D5
:100BF000236830221B6D26E09847236829461E6D26
:100C000020465B6D984760F07F022946D2B22046AD
:100C1000B047236800221B6D302120469847236887
:100C200031211D6D20465B6D9847312100F07F0218
:100C30002046A847236800221B6D40212046984784
:100C4000236800221B6D2046BDE8704041211847F3
:100C500070BD90F8682170B5022A04460CD0042AB1
:100C600022D190F86931012B1ED190F8B331DBB15C
:100C7000036802221B6D08E090F86931012B13D143
:100C800090F8B33183B103681B6D12219847A569B1
:100C900055B1236820465B6D1C2198472B46BDE863
:100CA000704000F03F00184770BD37B5036802ACD4
:100CB00004F8012D9D6D22460123A84703B030BDE5
:100CC00013B503680DF10702DC6D0123A0479DF801
:100CD000070002B010BD036810B49C6D1346A44613
:100CE0000A4610BC00216047036810B4DC6D13464F
:100CF000A4460A4610BC0021604703689B6F184752
:100D0000F8B50546084E00242B68315D5B6928461E
:100D100098472A683319176D59789A78284603340A
:100D2000B8472D2CF0D1F8BD28C00008704790F8C6
:100D3000C930022B0CBF8020002070470120704773
:100D40004A680B6812F0010F4FEA620218BF81581F
:100D5000104418BFCB581847F8B5044617460E463E
:100D60001D4603685B6998472368394620469B699E
:100D7000984723680521D3F88830204698470120FA
:100D800005F05AFD23683146DB6C2046984706463D
:100D9000236820469B6B9847AE42CCBF00200120C1
:100DA000F8BD70B50446036801215B699847236864
:100DB000FF221B6D11212046984723680521D3F897
:100DC00088302046002598472E46012005F034FD46
:100DD00023682C215B6D2046984700F00100A84055
:100DE0000135202D46EA0006EFD1236820469B6B93
:100DF0009847304670BD90F869312DE9F041012BDC
:100E00000E464FF000010446154680F868113DD1AA
:100E1000036890F8B5211F6D33215B6D1AB19847B7
:100E200000F0BE0204E0984700F0BE0242F001026A
:100E300033212046B847236884F8C0511B6D2A46E9
:100E4000222120469847236800221B6D0E21204650
:100E50009847236800221B6D0D2120469847236880
:100E600001215B6D2046984730F0F80306D12368D6
:100E70002046DB6B9847012005F0DEFC23683146F5
:100E80001B6E2A4620469847D4F8B811236820469E
:100E9000BDE8F0419B6C184710B50446D43005F00E
:100EA000BBF904F5827005F0B7F923682046BDE868
:100EB0001040D3F888300021184710B50446D430CC
:100EC00005F0AAF904F5827005F0A6F9236820461A
:100ED000BDE81040D3F888300121184773B50023CE
:100EE0008DF8073090F868310446022B00F09580A9
:100EF000042B40F0A58090F86931012B40F0A080D0
:100F0000036840221B6D12219847236812215B6DF4
:100F1000204698478DF807009DF8073004F5827544
:100F200013F0200F23681AD01B6D202212212046B7
:100F3000984794F8B63113B984F868310AE0236809
:100F400025215B6D20469847236802461B6D0D21C5
:100F500020469847284605F05FF963696EE05B6DAF
:100F6000192120469847236884F8BC015B6D1A213B
:100F70002046984794F9BC313249002BD4F86C6173
:100F80004FEA20120EDA8E428CBF4FF663714FF695
:100F90005C71A4F8BE11042193FBF1F1B4F8BE31E9
:100FA0000B4409E08E428CBF4FF663734FF65C73BF
:100FB000A4F8BE31B4F8BE31184423681044A4F834
:100FC000BE015B6D132120469847236884F8C00159
:100FD0001E6D10215B6D204698470D21024620466C
:100FE000B047236894F8C0215B6ED4F8CC1020463B
:100FF000984794F8B6310BB984F86831284605F063
:101000000BF9E568E5B194F9BC31B4F9BE2194F867
:10101000C011D4F8CC00A84712E0D43005F0FCF899
:1010200094F86931012B05D1236808221B6D122128
:1010300020469847002384F86831636803B19847D5
:1010400002B070BD40DD4A1F90F9003010B5013389
:10105000044604D143220649064805F041F9A36835
:101060001A6863681A4214BF0120002010BD00BF37
:1010700000C2000865C2000870B504467830FFF76A
:10108000E3FF234D10B901232B7008E02B7833B117
:1010900000232B7023682046D3F88C30984704F146
:1010A0008C00FFF7D1FF10B901236B7009E06B785A
:1010B0003BB1174B00225A7023682046D3F890307A
:1010C000984704F1A000FFF7BFFF10B90123AB70F0
:1010D00009E0AB783BB10E4B00229A7023682046A2
:1010E000D3F89430984704F1B400FFF7ADFF10B97E
:1010F0000123EB7070BDEB784BB1054B0022DA7029
:1011000023682046BDE87040D3F89830184770BD7A
:101110001902002090F869312DE9F041012B0446B5
:101120000E4643D1036890F8B5211D6D33215B6DE8
:1011300022B1984740F04102D2B204E0984700F053
:10114000BE0242F0010233212046A847236894F8EA
:10115000B32194F8B6511B6D62B11D2211212046B6
:101160009847236840211F6D20465B6D984700F02B
:1011700033020BE01F2211212046984723684021AB
:101180001F6D20465B6D984700F03F0220464021CE
:10119000B847236820461B6D00220F21984723681B
:1011A00000221B6D0D212046984700E000254FF4DA
:1011B00080720021D4F8CC0009F063FA042384F88B
:1011C00068317EB19C23C4F820310123C4F8243156
:1011D0000C4BC4F81C41C4F83031314604F5827020
:1011E00005F022F894F8693153B12368D3F88830B8
:1011F0000DB1052100E006212046BDE8F041184769
:10120000BDE8F081410D000890F8693170B5012BFF
:1012100004460D462DD1036890F8B3211B6DC2B171
:10122000F52211219847236840211E6D20465B6DF1
:10123000984700F03F0242F0400240212046B0476C
:10124000236840211E6D20465B6D984700F0F30235
:101250000CE0F72211219847236840211E6D20469B
:101260005B6D984700F03F0242F04002402120466B
:10127000B047022384F868319C23C4F8F03001237E
:10128000C4F8F430084B2946C4F8003104F1D40006
:10129000C4F8EC4004F0C8FF23682046BDE8704065
:1012A000D3F8883003211847410D000810B50446D3
:1012B0000221783001F09CFA04F18C00022101F047
:1012C00097FA04F1A000022101F092FA04F1B400AF
:1012D0000221BDE8104001F08BBA000038B590F94A
:1012E0000030044601330D4604D135220449054837
:1012F00004F0F6FFE268636805B91B04136038BDAB
:1013000000C2000865C200082DE9F04104460F46FE
:1013100000F150081E460021404620341546FFF7D4
:10132000DDFF47F08001204604F042FE013E6F1EC3
:101330003544AF4205D017F8011F204604F038FEAF
:10134000F7E74046BDE8F0410121FFF7C7BF2DE9AF
:10135000F04104460F4600F150081E460021404669
:1013600020341546FFF7BAFF07F07F01204604F04E
:101370001FFE013E6F1E3544AF4206D000212046BD
:1013800004F016FE07F8010FF6E74046BDE8F0410D
:101390000121FFF7A3BF000010B50446012120344E
:1013A0005030FFF79BFF20460022082104F0EEFD9D
:1013B0002046044904F0F4FDBDE81040024805F061
:1013C0002FBA00BF00127A00CDCCCC3D10B500F191
:1013D00064042046012101F00FFA00212046FFF7A6
:1013E0007DFF012005F028FA2046002101F004FAD3
:1013F000BDE81040062005F01FBA00000000000004
:1014000001292DE9F84F0446904640F08380D0F83A
:10141000A421092A05D8464B03EBC203D3E90C6784
:1014200001E000260027D4F8A8510120A84007F0C9
:101430005DFF02460B463046394608F0E7F80246A3
:101440000B4600203B4908F0E1F806460F46B4F889
:10145000AE0107F04BFF0022374B07F0FBFD324691
:101460003B4607F0A9FFAD0094F8B221C5F11C037B
:1014700003EB021294F8B03102EBC802002B824653
:1014800014BF14200020101A8B4607F01FFF94F899
:10149000AC318046002B14BF08200020281A894652
:1014A00007F014FF02460B464046494608F0AEF8E6
:1014B00007F0BAFC8046894694F8AD01043007F085
:1014C00015FF42464B4607F077FF002200230446F3
:1014D0000D4608F001FA0022184B28B12046294693
:1014E00007F0B8FD02460B463046394607F064FF68
:1014F00052465B4607F0AEFD09A3D3E9002307F08F
:101500005BFF09A3D3E9002307F0A4FDBDE8F84F72
:1015100007F012BD00200021BDE8F88FAFF3008076
:101520000000000080842E412B8716D9CEF7EF3FB4
:1015300028C000080000F03F0000114000002040DB
:1015400090F8683110B5042B04460FD190F869313A
:10155000012B0BD100F5827004F05EFE002384F8AD
:101560006831236913B1BDE81040184710BD70B54C
:1015700090F869510446012D1AD1036812215B6D60
:101580009847236810F001061B6D07D00522122131
:1015900020469847E3695BB1284606E00422122101
:1015A00020469847E3691BB13046BDE870401847B4
:1015B00070BD90F86831022B03D0042B07D103696A
:1015C00003E0002380F86831836803B1184770474F
:1015D00070B590F8D03004468B420D460FD084F899
:1015E000D010036801211E6D5B6D984700F0F80272
:1015F0002A4320463346BDE870400121184770BD9C
:10160000012908B51AD1D0F86C11114A036891422A
:101610005B6D4FF01B0106D9984707F067FE0AA3E0
:10162000D3E9002304E0984707F060FE094B00224D
:1016300007F00EFD08F05AF980B201E04FF6FF7096
:1016400000B208BDAFF300800000000000A06340BE
:1016500040DD4A1F0080644090F8693170B5012B6D
:10166000044619D10368FA221B6D1121984723689B
:1016700040211D6D20465B6D9847402100F03F02E0
:101680002046A8472368072184F868112046BDE852
:101690007040D3F88830184770BD2DE9F04F87B0FF
:1016A0001D469DF84030934600939DF85C309DF8B0
:1016B000682002939DF86030019103939DF8643097
:1016C00005920493036804465B69BDF84870BDF851
:1016D0004C809DF850609DF854909DF858A0984714
:1016E000019B012B40F0E780BBF1090F059A00D95F
:1016F000FEE79DF800300C2D84F8AD319DF80830E0
:10170000C4F8A4B184F8B3319DF80C30C4F8A851E2
:1017100084F8B4319DF8103084F8B06184F8B19148
:1017200084F8B2A184F8B53184F8B6211DD8052D0E
:101730000AD9BBF1080F02D10C2D2ED12AE0BBF142
:10174000070F08D10A2D0AE0BBF1080F24D0BBF126
:10175000070F21D00625BBF1060F02D1092D19D89C
:101760001BE0BBF1050F0BD1F8E7ABF10703012B31
:101770000FD9BBF1060F0CD0BBF1050F09D00C251A
:10178000BBF1040F01D1082DE9E7BBF1030F04D829
:1017900000E00C25012301E006250023226884F8DF
:1017A000AC31136D1D210193526D20469047009B73
:1017B0001D2146EA430242EA0B12D2B22046019BA7
:1017C000984723681E21D3F850B020465B6D984798
:1017D000C8F3012242EA8A0200F00800024342EA0A
:1017E0000512D2B21E212046D84723682621D3F8FD
:1017F00050A020465B6D984794F8AC2120F008007B
:1018000040EAC202D2B226212046D04723685FFABE
:1018100088F21B6D1F212046984723683A0A1B6DEA
:101820002021204698472368FAB21B6D21212046CB
:1018300098472EB123684A461B6D222120469847BF
:1018400094F8B33193B1236844211E6D20465B6D3B
:10185000984760F07F02D2B244212046B047236807
:1018600094F8B4211B6D2421204698472368062D47
:101870004FF031011D6D20465B6D0BD1984700F094
:10188000F80242F0050231212046A84723680C22C5
:101890001B6D0AE0984700F0F80242F00302312184
:1018A0002046A84723680A221B6D2046372107B02F
:1018B000BDE8F04F184707B0BDE8F08F38B50446D3
:1018C0000D461422002108F0DCFE2046294604F0D3
:1018D00053FD204638BD000010B50446044B03609C
:1018E00004F09AFC204604F0F1FC204610BD00BF35
:1018F000CCD1000838B504460C4B0D4D0360D0F830
:10190000CC0007F064FAC4F8345104F59A70FFF77C
:10191000E3FFC4F8045104F58270FFF7DDFF2046B1
:1019200040F8D45FFFF7D8FF204638BDB0C00008AC
:10193000E0D1000810B50446FFF7DCFF204607F0B1
:1019400046FA204610BD10B50446FFF7C5FF2046F5
:1019500007F03DFA204610BD03682DE9F04104462A
:101960005B6D09219847236806215B6D064620467A
:101970009847236805465B6D0721204698472368F2
:10198000000240EA05455B6D082120469847284340
:1019900007F09CFC22A3D3E9002307F00DFD07F01C
:1019A000CDFF236800221B6D09210546204698477C
:1019B00023683B211F6D20465B6D984740F0400235
:1019C000D2B23B212046B84723683B215B6D2046BD
:1019D00098478206F8D4144B3B21C4F86C31236835
:1019E00020461F6D5B6D984740F04002D2B23B210C
:1019F0002046B84723683B215B6D20469847830605
:101A0000F8D4236820461B6D324609219847236885
:101A100029462046BDE8F0419B691847AFF3008096
:101A20000000000080844E4000A1BC337FB5044616
:101A30000B9D142603950A9D0295099D0195089D0D
:101A4000009500F095F82046474B04F1500540F80A
:101A5000203B4FF0FF3300939DF934209DF938303F
:101A60009DF9301004F04CFA32460021284608F067
:101A700008FE9DF93C10284604F1640504F098FC2A
:101A800032460021284608F0FCFD9DF9401028460A
:101A900004F072FC9DF9441004F17800FFF70EFF8A
:101AA0009DF9481004F18C00FFF708FF9DF94C10D8
:101AB00004F1A0000025FFF701FF2C4E9DF9501006
:101AC00004F1B400FFF7FAFE84F8C85004F1D40022
:101AD00004F0DEFBC4F8D460C4F8EC50C4F8005144
:101AE00004F5827004F0D4FBC4F80461C4F81C51FE
:101AF000C4F8305104F59A7004F0CAFBC4F834619C
:101B0000C4F84C51C4F860510A2004F095FE84F8E2
:101B100064514FF4807007F06DF90126C4F8CC00D1
:101B200084F8D060204684F86851FFF74FFC032307
:101B300084F8C9302046FFF70FFF2046FFF7DDF895
:101B400029462046FFF744FD2046FFF7AFFB20461D
:101B5000FFF7D6F820463146FFF728F8204684F8EC
:101B6000685104B070BD00BFB0C00008E0D10008EB
:101B700030B5C360039B064D0361049B0560436160
:101B8000059B41608361069B8260C36130BD00BFDD
:101B900088C200084A680B6812F0010F4FEA62021F
:101BA00018BF8158104418BFCB58184790F900301F
:101BB00010B50133044604D143220649064804F017
:101BC0008FFBA3681A6863681A4214BF01200020C3
:101BD00010BD00BF00C2000865C20008074B0A2004
:101BE0001B68642193FBF0F393FBF1F201FB1233CA
:101BF000034A106801FB0030704700BF200200203C
:101C0000240200202DE9F74F00F13006012304469D
:101C100030468DF807308DF806308DF805308DF898
:101C20000430FFF7C3FF08B98DF8040030460221E5
:101C300004F1440500F0DCFD2846FFF7B7FF08B9C2
:101C40008DF807000221284600F0D2FD052004F09F
:101C5000DBFD3046FFF7AAFF012808BF0023284616
:101C600008BF8DF80530FFF7A1FF012808BF00234A
:101C700030464FF0010108BF8DF8063000F0B8FD86
:101C800028460121002500F0B3FDAB462A4604F1A9
:101C90005C064FF0010A01ABEB5CA9B2002B4ED100
:101CA0003378032B9CBF013333703378042B55D129
:101CB00094F8663067198B422ED1B4F86890D4F846
:101CC0006C80B9F1000F11D1FFF788FF94F86430F0
:101CD000C8EB0000984224DDA4F868A0FFF77EFF5F
:101CE000E06697F8583069F3000312E0FFF776FFDB
:101CF00094F86530C8EB0000984212DD09F1010943
:101D0000A4F86890FFF76AFFE06697F858306FF321
:101D1000000387F8583004E0A4F868B0FFF75EFFCE
:101D2000E06697F85830DA0717D443F0010387F8D4
:101D3000583033790133337184F866500DE03378CD
:101D40000BB1013B3370307840B9631993F85810E8
:101D500060F3000183F8581000E001220135042DE2
:101D600006F1010697D112B9FF2384F8663003B05B
:101D7000BDE8F08F2DE9F84304468946904604F00B
:101D800087FA1D4B002504F13007142623603246E4
:101D90002946A561E562384608F073FC4946384695
:101DA000012204F1440704F0EAFA32462946384693
:101DB00008F067FC01224146384604F0E0FA50235F
:101DC00084F86430FF2384F866300C4B2046E361CE
:101DD0000B4B84F86560A4F86850E566E5652566F8
:101DE000A565A4612562E36242F2107104F01CFA59
:101DF0002046BDE8F88300BFCCD10008051C0008D0
:101E0000951B000800F15F0200F1630312F8010F57
:101E100010B99A42FAD170470120704700F15F0370
:101E200000F163020020014610B513F8014F0CB118
:101E3000197001209A42F8D110BD90F8603013B1AA
:101E4000002280F860201846704790F8613013B186
:101E5000002280F861201846704790F8623013B174
:101E6000002280F862201846704790F8633013B162
:101E7000002280F8632018467047000001210148C5
:101E800000F04ABB1D020020002070474FF0FF30D9
:101E900070472DE9F04F1F4685B0BDF93830154623
:101EA0009A1A002AB8BF524200927A1A002AB8BF82
:101EB000524201920C46009A019981468A42BDF82D
:101EC0003CA005DD3A461F46134622462C461546E1
:101ED000BC4205DD2A461D46134622463C461746AF
:101EE0005A1B002AC4EB0708B8BF52421FFA88F8F1
:101EF000039202260FFA88F292FBF6F64FF6FF7273
:101F00009D42B8BF0122B6B20292A7421FDB019ADE
:101F1000009B48469342D9F80030C8BF2246D3F808
:101F20002CB0C8BF29465346DCBF2A462146D847B5
:101F3000039BF61AB3B29EB2320405D5029A08EB9F
:101F4000030615442DB2B6B2013424B2DDE705B064
:101F5000BDE8F08F37B5013BBDF818501344046855
:101F60001BB200930195646B0B46A04703B030BDD4
:101F70002DE9F347054617460C46BDF92880BDF804
:101F80002C9001EB030A54450BDA2B68CDF8009036
:101F90009E6B214643463A4628460134B04724B258
:101FA000F1E702B0BDE8F0872DE9F04F8FB092461F
:101FB000BDF8602004460892BDF86420079109929C
:101FC000B0F91C209DF868608A4240F38780B0F920
:101FD0001E20524540F3828006EB86020A44002A06
:101FE0007CDD0AEBC602002A78DD03EB83030C9349
:101FF00006230A93B7B2002304930FFA87F89DF9DA
:1020000010301FFA8AF5052B1BBF364A0C994FF08A
:102010000009521818BF12F803909BB20293BDF842
:102020001C3006950393039A029B059507FB032337
:1020300005F1080292B21BB20D920B9319F0010F39
:1020400014D0012E07D1029B039A99182368D3F864
:102050002CB0089B17E0089A23680192CDF8008005
:10206000D3F83CB0BDF9142043461BE0089B099A05
:1020700093421AD0012E0BD1029B039A9918236820
:10208000D3F82CB0099B2AB209B22046D8470CE0FD
:10209000099A23680192CDF80080D3F83CB04346FA
:1020A000BDF918200B992046D847059B01353B44C4
:1020B0009BB20593069BADB23B449BB206930D9B2E
:1020C0004FEA59099D42B9D1049B0133DBB2049315
:1020D0000A9B013B13F0FF030A9390D10FB0BDE8B8
:1020E000F08F00BFF0C2000830B50A2985B0044661
:1020F0000B4605D190F82820438C03EBC20327E060
:102100000D2926D090F82850B0F92220B0F92010DF
:102110000295C58C0195858C0095FFF745FF94F8D5
:102120002820238C91B201EB410003EB400394F88B
:102130002A009BB2238470B1B4F91C006FF005052E
:1021400005FB02021BB2934205DD638C03EBC10366
:10215000638400232384012005B030BDC9B2FFF79A
:10216000C3BF036800291B6C14BFAF21AE21184701
:10217000036800291B6C14BFA721A62118477047CC
:10218000002380F82C30F02380F82D304FF0FF33FF
:10219000C0F82E30C0F83230704700000029F0B58A
:1021A0005CDBB0F91C408C4258DD002A56DBB0F9EC
:1021B0001E40944252DD90F82950048B05F003052F
:1021C000022D80F8295041D1651E691A458B09B24C
:1021D000013DAA1A12B205E0012D03D1651EAD1A08
:1021E0000A4629B2082692FBF6F6B6B206FB04149C
:1021F000A5B21B4C1440002CBEBF04F1FF3464F0A8
:1022000007040134012224B202FA04F4934200EBE1
:102210000503E7B293F8362003D117421ED13A43A3
:1022200003E017421AD022EA040283F83620102372
:1022300091FBF3F136B23044012309B203FA01F104
:1022400090F82E30194380F82E1007E0032DC3D1EB
:10225000458B013D6D1A11462AB2C3E7F0BD00BFA0
:1022600007000080036870B51B6C0D468121044691
:10227000984730B9236829462046BDE870401B6C5A
:10228000184770BD70B5044601200D4604F0D4FA1D
:102290000A2004F0D1FA2368AE211B6C204698472F
:1022A0000646002840F095802368D5211B6C204607
:1022B0009847236880211B6C204698472368A821F3
:1022C0001B6C20469847A17E236801391B6CC9B25C
:1022D000204698472368D3211B6C204698472368E3
:1022E00031461B6C20469847236840211B6C2046D2
:1022F000984723688D211B6C204698472368012D41
:102300000CBF102114211B6C204698472368202104
:102310001B6C20469847236802211B6C2046984777
:102320002368A1211B6C204698472368C8211B6C99
:10233000204698472368DA211B6C20469847B4F959
:102340001A202368202A0CBF022112211B6C204670
:102350009847236881211B6C20469847B4F91A20BE
:102360002368202A1B6C04D0012D0CBF9F21CF2194
:1023700000E08F21204698472368D9211B6C204616
:1023800098472368012D0CBF2221F1211B6C2046A8
:1023900098472368DB211B6C20469847236840211F
:1023A0001B6C2046984723682E211B6C20469847BB
:1023B0002368A4211B6C204698472368A6211B6C28
:1023C0002046984723682046BDE870401B6CAF212B
:1023D000184770BD2DE9F04190F82D300446F02BE0
:1023E00013D1002380F82D30036820211B6C9847FF
:1023F000002866D1236802211B6C204698470028DC
:102400005FD1314BFE221A705A70D4F82E3043B986
:10241000D4F8320028B984F82D0084F82C00BDE8E7
:10242000F081012694F82D10651895F82E0094F887
:102430002C3006FA03F2174602400FD0224B20EA56
:1024400007001A7885F82E008A421E4614D1737848
:1024500094F82C5001339D4219D127E00133DBB2AF
:10246000072B84F82C30E2D9013101F0070184F800
:102470002C2084F82D10D5E71970236841F0B001A5
:102480001B6C204698470028E1D0BDE8F081236806
:1024900000211B6C2046984798B9236805F00F016E
:1024A0001B6C41F010012046984750B994F82C203D
:1024B0002368727094F82D102046BDE8F0419B6DA2
:1024C0001847BDE8F08100BF4001002038B5044640
:1024D000054654F8353B05F23545DB6D984700233A
:1024E00004F8013FAC42FBD138BD0000084A09495D
:1024F0001368013313600B88013B9BB20BB10B8057
:1025000070474FF47A730B80536801335360704700
:10251000200200204201002070B5164C0646237AA6
:102520002BBB0123237211B3E5681D4016D104F1C2
:102530000C0006F061FC88B104F1100003F0A8FE65
:102540000D4B04F10C00A562E563236106F060FC0D
:102550000A4A0B4904F1100006F034FC094B4FF411
:102560007A71A3620023E363074803F05DFE3046FF
:1025700070BD00BF20020020CCD100083C0100202B
:10258000D9180008ED24000830020020012807B502
:1025900001D1094B02E0022801D1084B009300232E
:1025A0006846019300F052FB054B0649186803F09A
:1025B00009FE03B05DF804FB0054004000580040E1
:1025C00070010020D0C8000873B5124C14252A46AB
:1025D0000021204608F055F866192046122103F024
:1025E000E7FE2A460021304608F04BF828343046F2
:1025F0000222232103F0C3FE2A460021204608F0D0
:1026000040F8002300931A460E21204603F0D3FE23
:1026100002B070BD600200201FB52E4B02681A6028
:1026200090F90430252B51D8DFE803F01315171962
:102630001B1D1F21505050505050505023255050BA
:1026400050505050505050503335373927292B2D8A
:102650002F31002324E0012322E0022320E0032382
:102660001EE004231CE005231AE0062318E00723DC
:1026700016E0082314E0092312E00A2310E00B23DC
:102680000EE00C230CE00D230AE00E2308E00F23DC
:1026900006E0122304E0132302E0142300E01523D4
:1026A0000193012301A902930A480223039300F036
:1026B000B1FF084801F094F80A21064800F066FFCF
:1026C00020B9044800F0A2FF80B200E0002005B06D
:1026D0005DF804FB6813002070B50C4606468EB00A
:1026E0002149204603F0C8FE3060013004D1312278
:1026F0001E491F4803F0F4FD20461B4903F080FEED
:102700001C4B34711C68002C2BD101251D6001A8C5
:102710000223019304950A9402F052F93368164893
:102720000360164B1A6A42F400721A621B6A4FF475
:10273000806203F400730093009B42614FF4003306
:10274000102243608460C46004618261C3610462DA
:1027500044628562C462056344638463C46300F0B9
:1027600067FE0EB070BD00BF80CF0008DDC8000856
:1027700043C90008B402002068130020003802405A
:1027800008B5FFF749FFC0F3032343EA001080B206
:1027900008BD0000431C10B5044604D12722064999
:1027A000064803F09DFD2046002100F025FB04F0C3
:1027B0000F040120A04010BD5BC900086AC20008D8
:1027C00070B504464B1C0E46217010D0C1F30310A7
:1027D00000F0B8FA05463046FFF7DCFF05F11003BC
:1027E000A36005F1180328356060E360256170BDC2
:1027F00090F9000000F02EBB38B590F90030054686
:1028000001330C4604D147220749084803F068FD0C
:10281000012C95F9000008BF2146BDE8384018BFDB
:10282000002100F0E9BA00BF5BC9000865C20008DA
:10283000F8B50F464C235843154E00F11C043444A0
:1028400000250644BD4221D00121336801FA05F07C
:1028500018420F4A17D00F48A369D0F814E001FAC4
:1028600003F313EA0E0F0ED0D4F800E0436154F8DE
:10287000180C40B1DEF810E013EA0E0F08BF022179
:10288000D2F81432984701350434DBE7F8BD00BFB5
:10289000B80200200004014001210020FFF7C8BF5A
:1028A00001210846FFF7C4BF01210220FFF7C0BF86
:1028B00001210320FFF7BCBF01210420FFF7B8BFAF
:1028C00005210846FFF7B4BF06210846FFF7B0BF51
:1028D0002DE9F74F00924A1C80460D4666D001F064
:1028E0000F0909F1FF32C1F303100E2A09D8DFE8FE
:1028F00002F00C1014181C1C1C1C1C202020202072
:1029000020002C4F0024062616E02B4F012407261A
:1029100012E02A4F022408260EE0294F032409263C
:102920000AE0284F04240A2606E0274F052417262C
:1029300002E0264F06242826019300F003FA83467E
:102940004FFA86FA2846072100F056FA39465046D3
:1029500002F070FF1E4F06F01F00012101FA00F087
:102960004FEA5A1247F8220088F800604C26664366
:10297000184A88F80C5052F82970174AB9409559EE
:1029800000202943C8F80440C8F8080091511321D9
:1029900001FB0474019B02EB84014B60009BC1F8B6
:1029A0001CB0C1F83490C2F8143200E0084603B0FD
:1029B000BDE8F08F99280008A1280008A928000880
:1029C000B1280008B9280008C1280008C928000853
:1029D00000E100E0C0C90008B8020020F8B50546D3
:1029E00042684C24007B5443104B00F00F0153F815
:1029F00021300F49012606FA03F70E5940B226EAA4
:102A000007060E51132404FB0233002401EB83025A
:102A100054609A1D0C3301EB820201EB8303546076
:102A20005C60214600F0E8F9AC60F8BDC0C9000860
:102A3000B8020020A2B1012905D18368023B012B15
:102A400008D981601EE002291FD1836823F00203A8
:102A5000012B03D103238360082117E0816007E085
:102A6000012907D18368023B012B0DD80223836023
:102A700007210BE0022908D1836823F00203012B10
:102A800002D18360062101E082600C2190F90C00E4
:102A900000F0B2B970B506460C4611B1144B99421C
:102AA00004DD5C221349144803F01AFC48F20102C9
:102AB0003168124B19608869800701D5013AFAD153
:102AC0000E4D4FF480421A61284600225C605A6124
:102AD0009A60DA611A62DA609A6101F097F87368B5
:102AE00023B12A68136843F48063136070BD00BF8C
:102AF000801A060000CA000861CA0008B813002046
:102B000003680A4A13606FF480625A611A6842F4DB
:102B100080721A6041F201025969C90703D4013A6F
:102B2000FAD1012070470020704700BFB813002081
:102B300002680020136843F40073136070470000BC
:102B4000036841F20100C9B21961064B1B685A695A
:102B5000110605D45A69520702D40138F7D100E0B2
:102B600001207047B81300202DE9F743D0F800800A
:102B7000DFF87C9017461E4605460C46C9F80080D3
:102B8000FFF7BEFFD9F800304FF480525969C807EB
:102B900002D4013AFAD11EE004F0FE04C8F8104055
:102BA0004FF480525969890702D4013AFAD112E0F0
:102BB0005A69002401929B690193019B00E0013452
:102BC000B4420BDA395D2846FFF7BAFF0128F6D088
:102BD0002846FFF7ADFF4FF0FF3005E00A9B13B129
:102BE0002846FFF7A5FF204603B0BDE8F08300BFED
:102BF000B8130020114B1A6848F201039169890744
:102C000001D5013BFAD103680D4A934208D10D4B1F
:102C10009A6942F400129A619A6922F400120AE059
:102C2000094A934208D1074B9A6942F480029A619B
:102C30009A6922F480029A61704700BFB81300209D
:102C4000005400400038024000580040F7B50E46DE
:102C5000044633493046154603F00EFC3149074619
:102C6000284603F009FC0146384603F0E7FB2060E4
:102C7000013004D139222C492C4803F031FB226861
:102C80002B4B9A421ED12B4B1A68DAB901221A60DB
:102C9000294B23495A6A304642F400125A625B6A51
:102CA00003F400130093009B03F0AAFB1D49284680
:102CB00003F0A6FB0321304600F0CCF803212846A0
:102CC00000F0C8F822681D4B9A421ED1194B5A6871
:102CD000DAB901225A60184B11495A6A304642F457
:102CE00080025A625B6A03F480030193019B03F044
:102CF00087FB0C49284603F083FB0321304600F094
:102D0000A9F80321284600F0A5F82046FFF772FF36
:102D10000B492046FFF7BEFE0023636003B0F0BD01
:102D20002CCF0008FCCE000800CA00087DCA0008AD
:102D300000540040D00400200038024000580040F9
:102D4000A08601007FB5072841D8DFE800F0041015
:102D50001C2840404034214B2148DA6942F00102EE
:102D6000DA61DB6903F001030193019B33E01B4B44
:102D70001C48DA6942F00202DA61DB6903F00203FF
:102D80000293029B27E0154B1748DA6942F00402D0
:102D9000DA61DB6903F004030393039B1BE00F4B31
:102DA0001248DA6942F00802DA61DB6903F00803CD
:102DB0000493049B0FE0094B0D48DA6942F02002AE
:102DC000DA61DB6903F020030593059B03E0094802
:102DD00003F098FA002007B05DF804FB00380240C9
:102DE000000002400004024000080240000C0240C3
:102DF00000140240CCCA000830B5431C87B0054619
:102E00000C4604D159221049104803F069FAC5F361
:102E10000310FFF797FF05F00F05012303FA05F5EF
:102E20000B4B04F00F0253F8223001A90293C4F3B4
:102E300002130393C4F3C31403230195049305946D
:102E400000F012FE07B030BDEDCA00086AC20008EB
:102E500098CA0008431C70B506460C4604D17E2271
:102E60000C490D4803F03CFAC6F30310FFF76AFF64
:102E700006F00F05C1686B0003229A4021EA0202A6
:102E8000032CC260C26828BF00249C401443C46065
:102E900070BD00BFEDCA00086AC2000802680E4B90
:102EA0001A6082685A60C2689A600269DA60426990
:102EB0001A6100229A6190F91920013201D1082289
:102EC00005E090F9182001320CBF04220C220248C0
:102ED0005A6102F082BC00BFF4130020F0B50E4628
:102EE00085B004463C493046154603F0C5FA3B49D7
:102EF0000746284603F0C0FA0146384603F09EFA1A
:102F00002060013004D150223549364803F0E8F9F9
:102F10002368354A93420BD1344B1A6A42F48042FB
:102F20001A621B6A03F480430193019B00231CE097
:102F30002F4A93420BD12D4B5A6A42F400325A6207
:102F40005B6A03F400330293029B01230DE0294ADC
:102F500093420BD1254B5A6A42F480225A625B6A33
:102F600003F480230393039B022363601A493046D2
:102F700003F046FA1949284603F042FA721C03D0BE
:102F800001213046FFF766FF6B1C03D00121284664
:102F9000FFF760FF4FF41653A3600023E360236143
:102FA0006361267665762046FFF778FF2268114B2D
:102FB0009A420FD1104B01229A61104B04F118056F
:102FC0001A4620686168083403C2AC421346F7D140
:102FD0002068106005B0F0BD88CD000840CD000825
:102FE0004DCB0008B1CB000800380140003802404A
:102FF0000044004000480040D80400203414002061
:103000008160FFF74BBF0000024B5961416843F8F4
:1030100021207047D80400200368034A1868136011
:10302000C0F34010704700BFF4130020014610B5F4
:1030300004680846FFF7F0FF0028FAD06068C0B2C5
:1030400010BD00000368034A18681360C0F3C01085
:10305000704700BFF413002038B5044605682046C9
:10306000FFF7F0FF0028FAD0C9B2696038BD000050
:10307000036810B51A68104C22F0400223601A60F1
:10308000C2680369626182686360226107228369A2
:10309000E2624268E361E260426900232046A36085
:1030A000A3622362A261636202F041FA226813689C
:1030B00043F04003136010BDF40400202DE9F04FED
:1030C0000F4687B004463F49384690461E469DF954
:1030D000405003F0D1F93C498146404603F0CCF919
:1030E0003A490190304603F0C7F9394982462846EB
:1030F00003F0C2F9019B83461946484603F09EF946
:1031000059468146504603F099F90146484603F076
:1031100095F92060013004D14D222E492E4803F04C
:10312000DFF823682D4A93420AD12D4B1A6A42F4E4
:1031300080521A621B6A03F480530393039B1AE0C4
:10314000284A93420AD1264B5A6A42F480425A6274
:103150005B6A03F480430493049B0CE0224A93428D
:1031600009D11F4B5A6A42F400425A625B6A03F467
:1031700000430593059B1349384603F041F9124972
:10318000404603F03DF91149304603F039F9002378
:103190006360A360E3603823A3616B1C84F81C8028
:1031A0006777A677E57704D00949284603F028F920
:1031B00002E04FF4007363612046FFF759FF07B048
:1031C000BDE8F08FF8CC0008B0CC000874CC000843
:1031D00044CC0008CBCB00082CCC000800300140C8
:1031E0000038024000380040003C004010290CBF6D
:1031F0004FF400610021012A416004D0022A05D069
:103200003AB9826008E00021816005E08260002216
:1032100002E0022282600122C2604269B2F5007FB0
:1032200005D0002B14BF00224FF480224261002BF6
:1032300014BF00234FF482730361FFF719BF00002E
:10324000364B1A68364B9A423BD1364A914201DCE2
:10325000382305E0A1F57433903B934203D8302323
:103260008361FFF705BFA1F5F4232F4AA3F59073FF
:10327000934201D82823F3E7A1F574232B4AA3F541
:103280001073934201D82023EAE7A1F5F413284AEA
:10329000A3F59063934201D81823E1E7A1F57413D5
:1032A000244AA3F51063934201D81023D8E7A1F56F
:1032B000F401214BA1F59051994294BF08230023BA
:1032C000CEE71E4B9942C3DDA1F52F331C4AA3F56F
:1032D00048739342C3D9A1F5AA231A4AA3F5E6631A
:1032E0009342C7D9A1F537230E4AA3F5D873934269
:1032F000C9D9A1F574230E4AA3F510739342CBD913
:10330000A1F53713104AA3F5D8639342CDD9A1F59F
:10331000B701A1F558610D4BCEE700BF4401002075
:103320000048E8018FD003001FA107003F420F00B3
:103330007F841E00FF083D00FF117A001FBF0200BE
:103340000F9802007F1A0600BFC62D007F8D5B001C
:1033500003689A689007FCD5044A89B21360D96063
:103360009A68D207FCD5D868704700BFF4040020E3
:10337000044B186828B9044A012183E8060002F0CA
:103380009FBA70474C050020000C004008B5044B64
:103390001B680BB9FFF7ECFF024B586A08BD00BF72
:1033A0004C050020000C0040034B5B685863DA6852
:1033B00042F00202DA6070474C050020034B5A6865
:1033C000D36823F00203D360704700BF4C05002090
:1033D000024B6FF002025B681A6170474C050020D7
:1033E0007047000008B5094B03201A6842F0040238
:1033F0001A601A6842F002021A6000F019FA0F20EF
:1034000002F05EFAFFF7ECFF002008BD003C02402E
:10341000024A136801331360704700BF880500201B
:10342000014B1868704700BF8805002070470000F6
:1034300073B50446002800F09B8090F8493003F0F3
:10344000FF026BB94C4B80F848201A6A42F0010227
:103450001A621B6A03F001030193019BFFF7E6FF69
:103460004648022284F84920436823F440316368C7
:103470000B4343604FF4007191FAA1F1B1FA81F16D
:10348000606A92FAA2F2B2FA82F26369E568C9B29E
:103490001D43236AD2B22B43E56B00FA02F205FA10
:1034A00001F10B43616B1343102918BFA26B25690F
:1034B00018BF0A43216818BF13430A6812F0400F6F
:1034C00026D1A269A6681343E269B5F5807F42EA76
:1034D00006022E4604D0012D0CBF4FF48076002644
:1034E0003243E66A012E0ED168B94FF4604090FA7B
:1034F000A0F0B0FA80F0266BC0B2013E42F4006248
:1035000006FA00F002434E681D48304002434A600C
:1035100088681C4AB5F5807F02EA000242EA03028D
:103520008A600FD1086B4FF0F87292FAA2F2B2FAE9
:1035300082F2A56AD2B2013D05FA02F220F0F870DB
:10354000024302E00A6B22F0F8720A6389680E4AAD
:103550000A40934205D100200123E06484F84930F9
:1035600007E0042384F84930E36C43F00103E3648B
:10357000012002B070BD00BF0038024000270140AA
:10358000FF16FCFC89F1FFC0FEFF80BF036870B529
:103590009A68044656050D460AD59B68D80507D596
:1035A000042384F84930002384F84830012070BD9A
:1035B000FFF736FF064623681A6892070FD4691C86
:1035C000FAD035B90320002384F8490084F8483044
:1035D00070BDFFF725FF801B8542ECD2F2E7A269A0
:1035E00012B96FF012021A6094F84930042B0BD014
:1035F00094F84930352B07D094F84930252B0CBF6F
:103600003523152384F84930002070BD0368986D78
:103610007047000073B50023019390F84830012BE8
:1036200000F09C80012380F848304B680468062B2A
:103630004FEA83050A680BD82B44266C053B1F25EF
:103640009D4026EA050502FA03F32B43236434E088
:103650000C2B0BD82B44E66B233B1F259D4026EA01
:10366000050502FA03F32B43E36326E0122B0BD884
:103670002B44A66B413B1F259D4026EA050502FA17
:1036800003F32B43A36318E0182B0BD82B44666B72
:103690005F3B1F259D4026EA050502FA03F32B43F5
:1036A00063630AE02B44266B7D3B1F259D4026EA81
:1036B000050502FA03F32B432363092A0CD8666934
:1036C00002EB4203896807259D4026EA050501FAB9
:1036D00003F32B43636120E0132A0DD802EB42036E
:1036E00026691E3B896807259D4026EA050501FAE3
:1036F00003F32B43236110E01A2A0DD802EB420397
:10370000E6683C3B896807259D4026EA050501FAE5
:1037100003F32B43E36000E000BFA2F11003012B91
:1037200004D9002380F84830184618E00D4B59683A
:103730000902F6D45968102A41F400015960F0D109
:10374000094B0A4A1B68B3FBF2F20A235343019365
:10375000019B002BE5D0019B013BF8E7022002B062
:1037600070BD00BF002701404401002040420F000F
:1037700073B500230193036804461A68520601D505
:10378000002027E09A6842F001029A60124B134A27
:103790001B68B3FBF2F303EB43030193019B13B1EB
:1037A000019B013BF9E7FFF73BFE064623681B68D8
:1037B00013F04005E4D1FFF733FE801B0228F5D952
:1037C000042384F84930E36C84F8485043F0010343
:1037D000E364012002B070BD4401002040420F00AC
:1037E00090F8483010B5012B04461FD0012380F813
:1037F0004830FFF7BDFF012819D094F849306FF029
:103800000202222B0CBF3223122384F849300023FA
:10381000E36484F8483023681A609A6812F0405FC5
:1038200005D19A6842F080429A6010BD022010BD16
:10383000074A0002D36800F4E06023F4E0631B044D
:103840001B0C43F0BF6343F400330343D360704762
:1038500000ED00E0704708B5FFF7FCFF08BD000071
:10386000234B9A69D20505D5224A102151614FF4A4
:1038700080729A619B699B0508D51E4A536943F083
:10388000080353611A4B4FF400729A61184B9A69FE
:10389000500507D517494A6942F001024A614FF4C1
:1038A00080629A619B69190508D5124A536943F0F1
:1038B000020353610E4B4FF400629A610C4B9A69FC
:1038C000920407D50B494A6942F020024A614FF43D
:1038D00000529A619B69DB0408D5064A536943F09C
:1038E00004035361024B4FF480529A61704700BF4A
:1038F000003C024050140020054B5A68D20741BFDB
:10390000044A0020DA60044A54BF0120DA6070479C
:10391000003C0240EFCDAB8905040302034A0020BE
:10392000536843F001035360704700BF003C0240FE
:1039300070B50446FFF774FD0646174DAB69164A8D
:1039400013F0010F0AD0631CF8D00CB9032070BD2E
:10395000FFF766FD801B8442F0D2F7E793699E076C
:1039600044BF0223936192690B4BD5050FD49A692A
:1039700094050CD49A69500509D49A69910406D427
:103980009A69D20403D4986910F4006002D0FFF75A
:1039900067FF012070BD00BF003C0240F8B5304E0B
:1039A0000746337C0D46012B144656D001234CF2BA
:1039B00050303374FFF7BCFF00284BD1042F7061E7
:1039C0000BD14CF25030FFF7B3FF00283ED1254A0F
:1039D000536823F48073536032E0082F0AD14CF20D
:1039E0005030FFF7A5FF88BB1E4A536823F480734D
:1039F00053601CE0102F0AD14CF25030FFF798FFB3
:103A000020BB184A536823F48073536006E0022FEA
:103A100006D14CF25030FFF78BFFB8B92C6011E0A3
:103A2000012F07D14CF25030FFF782FF70B9A4B2DA
:103A30002C8007E057B94CF25030FFF779FF28B9D6
:103A4000E4B22C704CF25030FFF772FF4CF2503061
:103A5000FFF76EFF00233374F8BD0220F8BD00BFEE
:103A600050140020003C02402DE9F04FDFF8908117
:103A70000B68444685B0DFF88CC101930023019A9E
:103A8000DA4000F0B7804FF0010E019A0EFA03FE03
:103A900012EA0E0600F0AC804A6822F01009B9F173
:103AA000020F14D14FEAD30A00EB8A0A03F0070B86
:103AB000DAF820704FEA8B0B0F2505FA0BF527EA91
:103AC00005050F6907FA0BF72F43CAF820704FEA74
:103AD000430A032505FA0AF5ED43076802F0030BD4
:103AE0002F400BFA0AFB09F1FF394BEA0707B9F13E
:103AF000010F076011D8876805EA0709CF6807FA40
:103B00000AF747EA09078760476827EA0E0EC2F3FB
:103B100000179F4047EA0E074760C7683D408F681F
:103B200007FA0AF73D43C560D50061D5DCF820509F
:103B300023F0030E45F00105CCF82050DCF82050AE
:103B40000EF1804E05F0010503950EF5803E03F061
:103B50000309039D4FEA8909DEF808700F2505FA6D
:103B600009F527EA0507254DA84216D005F5806519
:103B7000A84214D005F58065A84212D005F58065ED
:103B8000A84210D005F58065A8420ED005F58065E5
:103B9000A84214BF0825072508E0002506E00125F6
:103BA00004E0022502E0032500E0042505FA09F5FA
:103BB0003D43F743CEF80850D8F8005012F4803F48
:103BC0000CBF3D4035432560656812F4003F0CBFD3
:103BD0003D4035436560A56812F4801F0CBF3D4031
:103BE0003543A560E568920254BF3D403543E5602A
:103BF000013344E705B0BDE8F08F00BF000002408C
:103C000000040140003802407047000070B50446CF
:103C100008B9012070BD90F8353003F0FF021BB9E0
:103C200080F83420FFF7F0FF01F04CFC384B98424D
:103C3000EFD938490223B0FBF1F184F8353023681D
:103C4000354D1A6822F001021A605A6822F03F02CC
:103C50000A435A6062681E6AAA4281BF4FF4967591
:103C600069434FF47A75B1FBF5F126F03F06013157
:103C700031431962DD69284925F44F458A4225F010
:103C8000FF0508D85200B0FBF2F0C0F30B02032A84
:103C900098BF042016E0A16849B902EB4202B0FBCC
:103CA000F2F0C0F30B0262B140F400400AE01921C7
:103CB0004A43B0FBF2F0C0F30B0212B140F44040B3
:103CC00000E001202843D8611A68E069216A22F0E7
:103CD000C00201430A431A609968E26820691043F0
:103CE00021F4034222F0FF0202439A60DA6860691D
:103CF000A16922F0FF0201430A43DA601A6800203A
:103D000042F001021A600123A06384F8353070BDCF
:103D10007F841E0040420F00A0860100013300F5A1
:103D2000806010B55B1000EB42020024A34205D076
:103D300031F8020B22F824000134F7E710BD0133FB
:103D400000F5806010B55B1000EB42020024A34236
:103D500005D052F8240021F814000134F7E710BD13
:103D600090F8E831012B0FD0012380F8E83121B918
:103D700003688022A3F84C2001E080F8241000237F
:103D800080F8E831184670470220704770B5CCB211
:103D900014F0800F01F07F064FF01C0515BF05FBE6
:103DA000060105FB0101283101F58471E4090E705B
:103DB0004C70CB7090F8E831CA60012B00F078812C
:103DC000012380F8E831CA780C780368032A2BD8DD
:103DD000DFE802F0021F0C1533F8242092B222F41F
:103DE000EC4222F0700242F400721BE033F824200F
:103DF00022F4EC4222F070021204120C12E033F8AA
:103E0000242092B222F4EC4222F0700242F4C0620A
:103E100008E033F8242092B222F4EC4222F070023F
:103E200042F4806223F824200D7833F8252045F4ED
:103E3000004422F0F0021205120D44F080042243E7
:103E400023F825208A7A0E78002A74D14C788A8843
:103E50003CB3B3F850405208A4B204EBC60552007C
:103E600003EB4505C5F800240C7833F824205206EE
:103E70000BD533F8242022F0F0021205120D42F483
:103E8000004242F0C00223F82420097833F82120B0
:103E900022F4E04222F040021204120C82F02002CE
:103EA000FBE0B3F850505208ADB205EBC60504353F
:103EB000520003F5806444F81520B3F850500A7896
:103EC000CE68ADB205EBC2053E2E05F106050BD955
:103ED000C6F34F12F60604BF02F1FF3292B26FEA48
:103EE000C2626FEA524206E0C6F34F02F60744BFD1
:103EF000013292B2920292B244F815200C7833F853
:103F0000242055040BD533F8242022F0F0021205AA
:103F1000120D42F4404242F0800223F82420097836
:103F200033F8212022F4804222F070021204120C95
:103F300082F44052B1E033F8262003F5806522F484
:103F4000F8721205120D42F4014242F0800223F889
:103F50002620B3F850200C7892B202EBC402CC8831
:103F60006408640045F81240B3F850200C7892B20F
:103F700002EBC4020C8904326408640045F8124064
:103F80004A780C78002A46D133F8242052040BD505
:103F900033F8242022F0F0021205120D42F44042C0
:103FA00042F0800223F824200C7833F824205606AF
:103FB0000BD533F8242022F0F0021205120D42F442
:103FC000004242F0C00223F824200C7833F8242069
:103FD00022F0F0021205120D42F4004242F0C0023B
:103FE00023F824200C7833F8242022F4804222F095
:103FF00070021204120C82F4405242F4004242F069
:10400000800223F82420097833F8212022F0C0020E
:104010001205120D41E033F8242055040BD533F876
:10402000242022F0F0021205120D42F4404242F028
:10403000800223F824200C7833F8242052060BD574
:1040400033F8242022F0F0021205120D42F400424F
:1040500042F0C00223F824200C7833F8242022F008
:10406000F0021205120D42F4404242F0800223F8A1
:1040700024200C7833F8242022F0C0021205120DFF
:1040800042F4004242F0800223F82420097833F8F9
:10409000212022F0F0029204920C42F4004242F0FD
:1040A000800223F82120002380F8E831184670BDF3
:1040B000022070BD70B501F07F011C2404FB0104D7
:1040C000C4F818210022C4F81C31C4F8202184F857
:1040D000092184F8081190F8E831012B64D00123FC
:1040E00080F8E831D4F81C31D4F814511C2606FBB2
:1040F0000106AB4286BF5B1BC4F81C31C4F81C210F
:1041000096F8122188BF2B46046812B196F809214F
:104110001ABBB4F8505096F80821ADB205EBC205B1
:104120003E2B05F1060504F580660BD9C3F34F124B
:10413000DB0604BF02F1FF3292B26FEAC2626FEA9D
:10414000524206E0C3F34F02DB0744BF013292B292
:10415000920292B246F815200CE0012A0AD1B4F876
:10416000502096F8085192B202EBC50204EB4202CD
:10417000C2F80C341C2303FB010191F8082134F828
:10418000223023F4804323F070031B041B0C83F4C0
:10419000405343F4004343F0800324F822300023CB
:1041A00080F8E831184670BD022070BDF8B501F006
:1041B0007F061C2101FB06018A63CB6300220123D9
:1041C0000A6481F8293081F82860044690F8E801F3
:1041D000984200F0A48084F8E831CD6B4B6B1C272B
:1041E0009D4282BFED1ACD631D4607FB064798BF6F
:1041F000CA6397F83220ABB28AB9BA8DB96B20681E
:10420000FFF78CFD216897F82830B1F8502092B262
:1042100002EBC30301EB4303C3F8045465E097F8D2
:10422000292020681ABBB0F8501097F8282089B2CE
:1042300001EBC2013E2D01F1060100F580670BD9AB
:10424000C5F34F12ED0604BF02F1FF3292B26FEADE
:10425000C2626FEA524206E0C5F34F02ED0744BF67
:10426000013292B2920292B247F811200CE0012A78
:104270000AD1B0F8502097F8281092B202EBC10290
:1042800000EB4202C2F80C541C2505FB064292F8D2
:10429000281005FB064530F8211049064CBF128E48
:1042A000D28DA96BFFF73AFD95F82930226863B9E2
:1042B00095F8281032F8213023F0F0031B051B0D70
:1042C00043F4004343F0C0030DE0012B0DD195F8FA
:1042D000281032F8213023F0F0031B051B0D43F4A6
:1042E000404343F0800322F821301C2303FB0646A1
:1042F000226896F82810002032F8213023F4E04399
:1043000023F040031B041B0C83F0300343F40043F1
:1043100043F0800322F8213084F8E801F8BD022040
:10432000F8BD03682DE9F341B3F84430044618049E
:1043300015D42268B2F84430590540F1D281B2F860
:104340004430204623F480631B041B0CA2F8443045
:10435000FBF76FFF00212046FFF702FDC1E10023BC
:10436000ADF806301C2704F5F6782068B0F8443024
:104370009BB21904ADF80430DBD5BDF8045015F03C
:104380000F0540F0B580BDF80410038801F010015E
:1043900089B259BB23F4E14323F070031B041B0CC7
:1043A0000380B0F8503094F828209BB203EBC2038E
:1043B00000EB4300D0F80434A26BC3F30903236479
:1043C0001344A3632046FBF728FF94F82430002B06
:1043D000CBD0E26B002AC8D194F82430216843F096
:1043E0008003A1F84C3084F82420BEE79BB2ADF8DE
:1043F0000630BDF806301A051ED5B0F8503094F8D6
:1044000008219BB203EBC20300EB4303D3F80C3447
:10441000B4F80C21C3F30903C4F820314146FFF777
:104420008EFC22682046138823F070031B051B0DA9
:104430001380FBF7E3FE98E7BDF806301B0494D524
:10444000038823F070031B051B0D0380B0F8503068
:1044500094F808219BB203EBC20300EB4303D3F8AB
:104460000C34C3F30903C4F8203163B1B4F80C2150
:10447000D4F81811FFF763FCD4F81821D4F82031D0
:104480001344C4F8183100212046FBF7BDFE226812
:10449000D4F81451B2F850103E2D89B201F1060142
:1044A00002F580600BD9C5F34F13EE0604BF03F18C
:1044B000FF339BB26FEAC3636FEA534306E0C5F371
:1044C0004F03ED0744BF01339BB29B029BB240F800
:1044D0001130138823F4804323F070031B041B0C5A
:1044E00083F4405343F4004343F0800313803CE7DC
:1044F00030F825309BB2ADF80630BDF806301E040A
:1045000076D530F8253007FB054123F070031B05F5
:104510001B0D20F8253091F81231ABB9B0F85030AE
:1045200091F808219BB203EBC20300EB4303D3F8DD
:104530000C64C6F30906DEB3B1F80C213346D1F89A
:104540001811FFF7FCFB33E091F8083130F8232015
:10455000DB0012F4804FB0F8502092B2134400EB0D
:10456000430308D0D3F80464C6F309067EB133468A
:10457000B1F80E2107E0D3F80C64C6F3090636B192
:104580003346B1F81021D1F81811FFF7D8FB07FB1B
:104590000543226893F8081132F8213023F0F00324
:1045A0001B051B0D43F4004343F0C00322F82130E8
:1045B00007FB0541D1F82031D1F818213344C1F867
:1045C0002031D1F81C313244C1F818211BB1D1F887
:1045D0001401864207D207FB0543204693F80811D1
:1045E000FBF712FE04E091F808112046FFF762FD88
:1045F000BDF8063018067FF5B8AE206807FB054108
:1046000030F8253023F4E14323F070031B041B0C26
:1046100020F8253091F832309BB9B0F8503091F83D
:1046200028209BB203EBC20300EB4303D3F804340E
:10463000C3F309030B64ABB38A8D896BFFF76EFB81
:1046400030E091F8283030F82320DB0012F0400FE2
:10465000B0F8502092B2134400EB430307D0D3F8D4
:104660000434C3F309030B645BB1CA8D06E0D3F8CD
:104670000C34C3F309030B641BB10A8E896BFFF77B
:104680004DFB07FB0543226893F8281032F82130D0
:1046900023F0F0031B051B0D43F4404343F080035C
:1046A00022F8213007FB0545216895F82830B1F83C
:1046B0005020204692B202EBC30301EB4303D3F830
:1046C0000424AB6BC2F309022A641A44EB6BAA639D
:1046D00095F8281013B9FBF7A0FD46E6FFF766FD35
:1046E00043E62368B3F84420520407D5B3F84420C6
:1046F00022F480421204120CA3F84420B3F84420A0
:10470000970407D5B3F8442022F400521204120C87
:10471000A3F84420B3F84420D60417D5B3F84020BA
:10472000204622F004021204120CA3F840204FF499
:104730003D42A3F84020FBF799FD2268B2F84430CF
:1047400023F480531B041B0CA2F844302368B3F8F5
:10475000442015051CD5B3F8442022F4006212044D
:10476000120CA3F84420B3F8402092B242F00802A1
:10477000A3F84020B3F8402092B242F00402A3F81C
:104780004020B3F84430D80402D42046FBF75EFD45
:104790002268B2F8443099050AD5B2F84430204670
:1047A00023F400731B041B0CA2F84430FBF73DFDFF
:1047B0002268B2F84430DB0507D5B2F8443023F460
:1047C00080731B041B0CA2F8443002B0BDE8F081DA
:1047D00090F8E83130B5012B49D0012380F8E83159
:1047E000CBB25DB201F07F04002D4FF01C02B5BFCB
:1047F00002FB040102FB0101283101F58471012251
:10480000E4B2DB098A700C704B7002687CB91388C3
:104810009BB223F4804323F0400383F4805383F05E
:10482000100343F4004343F0800313801AE0002D8B
:1048300032F8243008DA23F4E04323F040031B0469
:104840001B0C83F0100307E023F4804323F0700374
:104850001B041B0C83F4805343F4004343F0800398
:1048600022F82430002380F8E831184630BD0220B9
:1048700030BDCBB213F0800F10B54FF01C0201F029
:104880007F0415BF02FB040102FB0101283101F581
:104890008471DB0900228A700C704B7090F8E8314B
:1048A000012B48D0012380F8E8314B7802680C785E
:1048B000DBB132F824305B060BD532F8243023F01C
:1048C000F0031B051B0D43F4004343F0C00322F823
:1048D0002430097832F8213023F4E04323F04003F8
:1048E0001B041B0C83F030031AE032F824305B0405
:1048F0000BD532F8243023F0F0031B051B0D43F4D5
:10490000404343F0800322F82430097832F8213004
:1049100023F4804323F070031B041B0C83F44053E7
:1049200043F4004343F0800322F82130002380F851
:10493000E831184610BD022010BD0000024B186877
:1049400000F4C050704700BF0070004037B51A4CEB
:104950000546A36813F0F00F1AD1636ADB0002D595
:10496000FFF7ECFF0EE0636A43F080536362636A13
:1049700003F080530193019BFFF7E0FF636A23F08C
:1049800080536362B0F5C05F02D1B5F5404F01D0EE
:10499000002305E0094A136843F004031360012370
:1049A00006490A6822F001021A430A60086800F00A
:1049B0000100584003B030BD00380240003C0240C6
:1049C00003682DE9F743DE07044604D423689D07F6
:1049D00000F1C58064E1B04B9A6802F00C02082A2D
:1049E00007D09A6802F00C020C2A20D19B68D803E9
:1049F0001DD54FF4003393FAA3F2B2FA82F2C2F358
:104A0000421242F00102012AA34A0CBF1268526B03
:104A100093FAA3F3B3FA83F303F01F0322FA03F329
:104A2000D907D3D56368002BD0D10120ADE39A4DCF
:104A30004FF400362B68374623F480332B602B6805
:104A400023F480232B60FEF7EBFC804696FAA6F356
:104A5000B3FA83F3C3F3421343F00103012B0CBFFA
:104A60002A686A6B97FAA7F3B3FA83F303F01F037C
:104A700022FA03F3DA0709D5FEF7D2FC41F28833B4
:104A8000C8EB00009842E1D903207EE3824B1A680C
:104A900022F480321A606268012A07D11A6822F46F
:104AA00080221A601A6842F4803207E0052A02D197
:104AB0007A4B1A7003E01A6822F480221A60636845
:104AC00033B3FEF7ADFC4FF4003580462F46724EEF
:104AD00095FAA5F3B3FA83F3C3F3421343F001034A
:104AE000012B0CBF3268726B97FAA7F3B3FA83F30A
:104AF00003F01F0322FA03F3DB073FF567AFFEF76E
:104B00008FFC41F28833C8EB00009842E0D9BBE744
:104B1000FEF786FC4FF4003580462F465E4E95FA30
:104B2000A5F3B3FA83F3C3F3421343F00103012B5C
:104B30000CBF3268726B97FAA7F3B3FA83F303F0F2
:104B40001F0322FA03F3D8077FF540AFFEF768FC96
:104B500041F28833C8EB00009842E0D994E74E4B0D
:104B60009A6802F00C02042A07D09A6802F00C023C
:104B70000C2A1FD19B68D9031CD4022393FAA3F2F9
:104B8000B2FA82F2C2F3421242F00102012A424A10
:104B90000CBF1268526B93FAA3F3B3FA83F303F0DA
:104BA0001F0322FA03F3DA0736D5E368012B7FF4FB
:104BB0003CAF31E0E2680123002A3ED093FAA3F231
:104BC000B2FA82F2D2B2920002F1844202F58E026F
:104BD0001360FEF725FC022580462F462E4E95FADF
:104BE000A5F3B3FA83F3C3F3421343F00103012B9C
:104BF0000CBF3268726B97FAA7F3B3FA83F303F032
:104C00001F0322FA03F3DB0706D4FEF709FCC8EB07
:104C100000006428E3D937E71F484FF4F85342688F
:104C200093FAA3F3B3FA83F32169DBB201FA03F336
:104C300022F4F8521343436032E093FAA3F3B3FA39
:104C400083F3DBB29B0003F1844303F58E031A6008
:104C5000FEF7E6FB022580462F460F4E95FAA5F398
:104C6000B3FA83F3C3F3421343F00103012B0CBFE8
:104C70003268726B97FAA7F3B3FA83F303F01F035A
:104C800022FA03F3D8070BD5FEF7CAFBC8EB0000E6
:104C90006428E3D9F8E600BF003802400238024039
:104CA0002368D90640F1D780C14DAB6813F00C0FD3
:104CB0005AD14FF4007393FAA3F2B2FA82F2C2F31C
:104CC000421242F00102012A0CBF2A686A6B93FA71
:104CD000A3F3B3FA83F303F01F0322FA03F3DA0713
:104CE00003D5A369002B3FF4A0AEB14D206A6B68D9
:104CF00003F4604398421AD9FFF728FE00287FF496
:104D000094AE6B6823F46042236A13436B606A6855
:104D10004FF07F4393FAA3F3B3FA83F3E169DBB275
:104D200001FA03F322F07F4213436B6018E06B68D3
:104D300023F4604303436B606A684FF07F4393FA48
:104D4000A3F3B3FA83F3E169DBB201FA03F322F0D0
:104D50007F4213436B60FFF7F9FD00287FF465AED7
:104D60000F2000F0ADFD76E0A2694FF48073002AB9
:104D700044D093FAA3F3B3FA83F3DBB29B0003F1BD
:104D8000844303F58E0301221A60FEF749FB4FF4BA
:104D900000760746B04696FAA6F3B3FA83F3C3F358
:104DA000421343F00103012B0CBF2A686A6B98FA87
:104DB000A8F3B3FA83F303F01F0322FA03F3DB072C
:104DC00005D4FEF72DFBC01B6428E4D95CE67849C6
:104DD0004B6823F46042236A13434B604A684FF0E8
:104DE0007F4393FAA3F3B3FA83F3E069DBB200FAEB
:104DF00003F322F07F4213434B602CE093FAA3F3BA
:104E0000B3FA83F3DBB29B0003F1844303F58E0313
:104E10001A60FEF705FB4FF400760746B04696FA97
:104E2000A6F3B3FA83F3C3F3421343F00103012B58
:104E30000CBF2A686A6B98FAA8F3B3FA83F303F0FD
:104E40001F0322FA03F3D80705D5FEF7E9FAC01BC2
:104E50006428E4D918E62368190704D423685A079C
:104E600040F19B8045E062690123524902B393FA05
:104E7000A3F2B2FA82F2D2B241F82230FEF7D0FAAF
:104E800007464B4E022595FAA5F3B3FA83F3726BEE
:104E900095FAA5F3B3FA83F303F01F0322FA03F3A1
:104EA000DB07DBD4FEF7BCFAC01B6428EBD9EBE5CB
:104EB00093FAA3F3B3FA83F3DBB241F82320FEF7AE
:104EC000AFFA07463A4E022595FAA5F3B3FA83F3F3
:104ED000726B95FAA5F3B3FA83F303F01F0322FA7A
:104EE00003F3D807BAD5FEF79BFAC01B6428EBD9A9
:104EF000CAE52F4B304D5A6A42F080525A625B6AC3
:104F000003F080530193019B2B6843F480732B6063
:104F1000FEF786FA06462B68D90542D5244D41F2A4
:104F200088396B6B2E4623F480736B636B6B4FF485
:104F3000007723F480636B63FEF772FA804697FA7A
:104F4000A7F3B3FA83F31A4D726B97FAA7F3B3FA88
:104F500083F303F01F0322FA03F3DA072ED4A368C6
:104F6000012B32D16B6B43F480736B63FEF758FAFD
:104F700041F2883680460E4F4FF4007595FAA5F33E
:104F8000B3FA83F37A6B95FAA5F3B3FA83F303F0DC
:104F90001F0322FA03F3DB0736D5626A002A50D1D9
:104FA000B7E0FEF73DFA801B6428B4D96CE500BF7A
:104FB000003802408006474200700040FEF730FA99
:104FC000C8EB00004845BAD95EE57BB96B6B4FF47E
:104FD000007623F480736B636B6B41F2883823F4A3
:104FE00080636B63FEF71CFA07461AE0052B6B6BB8
:104FF00003D143F480636B63B4E723F480736B6382
:105000006B6B23F48063B0E7FEF70AFAC8EB00008D
:10501000B042B3D938E5FEF703FAC01B40453FF66E
:1050200033AD96FAA6F3B3FA83F36A6B96FAA6F356
:10503000B3FA83F303F01F0322FA03F3D807EAD489
:10504000ABE7534DAB6803F00C030C2B3FF4EDAC16
:10505000022A4FF080736AD193FAA3F3B3FA83F371
:10506000DBB29B0003F1844303F58E0300221A6038
:10507000FEF7D6F94FF000760746B04696FAA6F34B
:10508000B3FA83F3C3F3421343F00103012B0CBFC4
:105090002A686A6B98FAA8F3B3FA83F303F01F0344
:1050A00022FA03F3D90736D4E26A394DA16AAB6814
:1050B0001143226B23F47D030A431343AB604FF08B
:1050C000807393FAA3F3B3FA83F3DBB29B0003F18B
:1050D000844303F58E0301221A60FEF7A1F94FF015
:1050E00000740646274694FAA4F3B3FA83F3C3F395
:1050F000421343F00103012B0CBF2A686A6B97FA35
:10510000A7F3B3FA83F303F01F0322FA03F3DA07DA
:1051100007D5002039E0FEF783F9C01B6428ADD91C
:10512000B2E4FEF77DF9801B6428DCD9ACE493FA85
:10513000A3F3B3FA83F3DBB29B0003F1844303F5DB
:105140008E0300221A60FEF76BF94FF000740646DA
:10515000274694FAA4F3B3FA83F3C3F3421343F05C
:105160000103012B0CBF2A686A6B97FAA7F3B3FA05
:1051700083F303F01F0322FA03F3DB07C9D5FEF71D
:105180004FF9801B6428E4D97EE403B0BDE8F083C6
:1051900000380240984B2DE9F0411A68054602F0AC
:1051A00001028A420E4680F09180012902BF1A68EE
:1051B00042F004021A601A6822F001020A431A60DF
:1051C0001B6803F00103994202D00120BDE8F08181
:1051D00001688A0706D58948836823F0F002AB6826
:1051E00013438360CB070BD429684F0740F1F48049
:1051F0008248836823F4E062EB6813438360EBE04A
:105200006A68022A02D14FF4003309E0032A02D16E
:105210004FF0007304E0012A0CBF02234FF4007327
:1052200093FAA3F1B1FA81F1C1F3421141F0010106
:10523000012972490CBF0968496B93FAA3F3B3FAC9
:1052400083F303F01F0321FA03F3DE07BDD56B4C94
:1052500041F28837A36823F003031A43A260FEF7E4
:10526000DFF86B680646022B0CD1A36803F00C0331
:10527000082BB9D0FEF7D4F8801BB842F5D903202B
:10528000BDE8F081032B0AD1A36803F00C030C2BBB
:10529000AAD0FEF7C5F8801BB842F5D9EFE7012B7D
:1052A0000FD1A36803F00C03042B9DD0FEF7B8F8D0
:1052B000801BB842F5D9E2E7FEF7B2F8801BB8428E
:1052C000DDD8A36813F00C0FF6D18DE701688C07C9
:1052D00006D54A48836823F0F002AB681343836025
:1052E000C80707D4012E444B6AD11A6842F0040261
:1052F0001A6065E06A68022A02D14FF4003309E0BF
:10530000032A02D14FF0007304E0012A0CBF0223EC
:105310004FF4007393FAA3F1B1FA81F1C1F3421192
:1053200041F00101012935490CBF0968496B93FA25
:10533000A3F3B3FA83F303F01F0321FA03F3D907AE
:105340007FF543AF2D4C41F28838A36823F0030367
:105350001A43A260FEF764F86B680746022B0AD175
:10536000A36803F00C03082BBCD0FEF759F8C01B50
:105370004045F5D983E7032B0AD1A36803F00C035A
:105380000C2BAFD0FEF74CF8C01B4045F5D976E7A3
:10539000012B10D1A36803F00C03042BA2D0FEF75D
:1053A0003FF8C01B4045F5D969E7FEF739F8C01B47
:1053B00040453FF664AFA36813F00C0FF5D191E7B9
:1053C0001A6822F0010232431A601B6803F00103DD
:1053D0009E427FF4FAAE07E70B0707D5074A296913
:1053E000936823F4605343EAC10393600F2000F0F5
:1053F00067FA0020BDE8F081003C0240003802401E
:105400001F4810B5836803F00C02082A35D00C2A17
:1054100013D0042A31D040684FF4604292FAA2F2CD
:10542000B2FA82F200F46043D0B223FA00F0013005
:105430004FF4004303FA00F010BD4FF4701292FADB
:10544000A2F2B2FA82F24FF4400191FAA1F1B1FA5C
:1054500081F10C4C8068D2B203F4701020FA02F291
:10546000A05C03F44002CBB222FA03F323445B7A3C
:10547000B0FBF3F0044B584310BD034810BD00BF10
:10548000003802407CD000080024F40008B5FFF783
:10549000B7FF094BF0219B6891FAA1F1B1FA81F1B4
:1054A00003F0F002CBB222FA03F3044A13445B7B0D
:1054B000D840034B186008BD003802407CD000087B
:1054C0004401002008B5FFF7E1FF094B4FF4E0610C
:1054D0009B6891FAA1F1B1FA81F103F4E062CBB2D9
:1054E00022FA03F3034A13445B7BD84008BD00BF94
:1054F000003802407CD0000808B5FFF7C7FF094B11
:105500004FF460519B6891FAA1F1B1FA81F103F473
:105510006052CBB222FA03F3034A13445B7BD840B8
:1055200008BD00BF003802407CD00008704710B5AD
:105530000446002836D090F8513003F0FF021BB922
:1055400080F85020FFF7F2FFA1686068022308434B
:10555000E16884F851300843216923680843616990
:105560001A680843E16922F040020843216A1A6080
:105570000843A269A16A084302F40071014319605B
:10558000120C616A02F004020A435A60E26A0020C7
:105590001A61DA6922F40062DA610123606584F835
:1055A000513010BD012010BDB0F1804F03680ED006
:1055B0001C4A90420BD002F58062904207D002F55F
:1055C0008062904203D002F57C42904216D14A6834
:1055D00023F07003B0F1804F43EA020315D0114A63
:1055E000904212D002F5806290420ED002F58062A5
:1055F00090420AD002F57C42904206D00A4A90427C
:1056000003D002F58062904203D1CA6823F440734C
:10561000134303608B68C3620B6883620123436199
:10562000704700BF00040040000C014010B501238A
:10563000046A8B4024EA03030362036A8A4042EA55
:105640000301016210BD704710B50446A0B190F887
:10565000353003F0FF021BB980F83420FFF7F3FF69
:10566000022384F835302068211DFFF79DFF0123B8
:1056700084F83530002010BD012010BD10B504465F
:1056800001220068FFF7D2FF22680020136843F070
:105690000103136010BDFFF7F1BF00002DE9F843CF
:1056A00007460568B9682B6923F44052C368C0698E
:1056B00013432B613B69EA6819437B69B0F5004FDE
:1056C00043EA010343EA000122F4164323F00C03EA
:1056D00043EA0103EB606B6923F44072BB6943EA60
:1056E00002036B613B4B32D19D424FF0190415D13F
:1056F000FFF702FF60437E684FF064087600B0FB5E
:10570000F6F6FFF7F9FEB6FBF8F660437A68360165
:105710005200B0FBF2F9FFF7EFFE14E0FFF7D2FE04
:1057200060437E684FF064087600B0FBF6F6FFF742
:10573000C9FEB6FBF8F660437A6836015200B0FB4A
:10574000F2F9FFF7BFFE44437868400031E09D4224
:105750004FF0190415D1FFF7CFFE60437E684FF07C
:105760006408B600B0FBF6F6FFF7C6FEB6FBF8F627
:1057700060437A6836019200B0FBF2F9FFF7BCFE95
:1057800014E0FFF79FFE60437E684FF06408B600A8
:10579000B0FBF6F6FFF796FEB6FBF8F660437A68C4
:1057A00036019200B0FBF2F9FFF78CFE44437868B3
:1057B0008000B4FBF0F0B0FBF8F008FB109212018F
:1057C0003232B2FBF8F303F00F033343AB60BDE8B2
:1057D000F88300BF00380140704710B5044630B36D
:1057E00090F8393003F0FF021BB980F83820FFF73A
:1057F000F3FF2268022384F83930D368204623F46B
:105800000053D360FFF74AFF236800201A6922F48F
:1058100090421A615A6922F02A025A61DA6842F407
:105820000052DA600123E06384F8393010BD0120B2
:1058300010BD000030B50C4CA268A4681346B4F14A
:10584000006F0CD1131F094C094A53F8045F42F84A
:10585000045FA242F9D1044A4FF000539360103024
:1058600043F8201030BD00BF00ED00E02001002013
:10587000FCFFFF1F38B5104B1A681C46D26812F0A7
:10588000020F01D000F0BAFF2368DA68520711D581
:105890006FF00402094D1A615C6A2B68E31AB3F5D4
:1058A0007A7F07D3FDF7B4FD034B04F57A721B68CA
:1058B0002C609A6338BD00BF681400208C0500205E
:1058C000224B37B55A6A224C42F008025A625A6A91
:1058D000002502F008020192019A9A6942F008023A
:1058E0009A619A6922F008029A6100F03FF8194B18
:1058F000194A23604FF0FF33E360184B20461B68C2
:105900002561B3FBF2F3013B6360A560FFF79CFEEA
:1059100013492E20FFF78EFF124B4FF480425A603E
:1059200029462046FFF7B7FE04212046FFF7B3FEC5
:10593000284623680C495A6A0A6002F57A729A630B
:10594000DA6842F00402DA6003B030BD0038024089
:1059500068140020000C004040420F004401002069
:105960007558000800E100E08C0500201B4930B5A7
:105970008B681B4A03F00C030C2B1CD8DFE803F0E8
:105980001B1B1B1B071B1B1B071B1B1B0900154B92
:1059900019E08B688868C3F3834313441B79C0F311
:1059A0008150DCB28B680F4B01306343B3FBF0F3E3
:1059B0000B4D2B6008E04B684FF40041C3F34233BA
:1059C000013301FA03F31360044B9B68C3F3031321
:1059D0001344597B1368CB40136030BD003802403C
:1059E000440100200024F40010B5022394B093FA7F
:1059F000A3F2B2FA82F2C2F3421242F00102012A89
:105A0000254A0CBF1268526B93FAA3F3B3FA83F3DF
:105A100003F01F0322FA03F3DB0739D41E4B5A6A43
:105A200042F080525A625B6A1C4A03F08053019331
:105A3000019B136823F4C05343F4006313600323F2
:105A4000079308B9012300E005230893022310936C
:105A50004FF4803311934FF400230024129307A8CE
:105A60004FF400030A941393FEF7AAFF70B90F23B3
:105A700002930490032305900690012102A803934A
:105A8000FFF788FBB0FA80F0400902E0204600E012
:105A9000002014B010BD00BF00380240007000406C
:105AA0001D4B30B55A6A95B042F080525A625B6A1B
:105AB0001A4D03F080530193019B2B68002423F4BB
:105AC000C05343F400632B600323079301230A931D
:105AD000022310934FF48023129307A84FF48003FE
